:020000040800F2
:1000000000500020C1CB00085DCC00085DCC00088A
:100010005DCC00085DCC00085DCC0008000000004D
:100020000000000000000000000000005DCC00089F
:100030005DCC0008000000005DCC0008C9B60008D7
:100040005DCC00085DCC00085DCC00085DCC0008EC
:100050005DCC00085DCC00085DCC00085DCC0008DC
:100060005DCC00085DCC00085DCC00085DCC0008CC
:100070005DCC00085DCC0008E9BB00085DCC000841
:100080005DCC00085DCC00085DCC00085DCC0008AC
:100090005DCC00085DCC00085DCC00085DCC00089C
:1000A0005DCC00085DCC00085DCC0008EDBD00080B
:1000B000F9BD000805BE000811BE000835B00008F3
:1000C00019B1000831B0000815B100085DCC000876
:1000D0005DCC00081DBC00085DCC00085DCC0008AC
:1000E0003DC000085DCC00085DCC000800000000A9
:1000F0000000000000000000000000000000000000
:0C01000000000000000000005FF808F1A3
:1001100010B5054C237833B9044B13B10448AFF341
:1001200000800123237010BDA80000200000000003
:1001300018250108084B10B51BB108490848AFF352
:1001400000800848036803B910BD074B002BFBD0A3
:10015000BDE81040184700BF00000000AC000020C0
:1001600018250108A400002000000000F0B50124BB
:10017000B0FBF4F58D4201D200260BE04C43F7E7CB
:10018000B0FBF4F504FB1500B4FBF1F42EB9002D1F
:1001900003DC14B1002CF3D10EE0092D03F1010EA4
:1001A00004DD002A14BF3727572700E030273D44DD
:1001B0001D7001367346EDE71C70F0BD2DE9F0416E
:1001C000069D002B06460F462B4614BF4FF0300805
:1001D0004FF0200813F8011B09B16AB906E0144674
:1001E00024B141463046B847013CF9E715F8011BF8
:1001F00021B13046B847F9E7013AEBE7BDE8F081B5
:1002000003685A1C0260197070472DE9F04F0646CA
:100210000F461C4687B00DF10C081178002900F03C
:100220008580252902D002F101097CE05178002562
:1002300030290CBF917802F10209A1F1300312BFFD
:100240004FF0000A02F103094FF0010A092B19D8F7
:10025000A1F13003DAB2092A0ED9A1F16103052B0D
:1002600002D8A1F1570305E0A1F14103052B09D8FC
:10027000A1F137030A2B05DC0A2202FB053519F828
:10028000011BE5E763293CD007D825294BD0582925
:1002900023D000294AD04A46BFE7732937D011D866
:1002A0006429F8D1206804F1040B0028BFBF2D2376
:1002B0008DF80C3040420DF10D03A8BF43460022DB
:1002C0000A2112E0752902D0782906D0E3E704F16B
:1002D000040B434600220A2106E0434658394A42AD
:1002E0004A4104F1040B10212068FFF73FFFCDF8CD
:1002F000008053462A4639463046FFF75FFF5C468A
:10030000C9E72178251D3046B8472C46C3E7236846
:1003100004F1040A00932A46002339463046FFF7C9
:100320004DFF5446B7E73046B847B4E707B0BDE8DD
:10033000F08F024B19605860704700BFC400002066
:100340000FB407B5064804AB53F8042B01684068A6
:100350000193FFF75AFF03B05DF804EB04B0704758
:10036000C400002013B502AC44F8040D1346204627
:100370000A460449FFF749FF019B00221A7002B0A8
:1003800010BD00BF0102000870B5044640F8081B0C
:1003900004F5C475214603F0B4FD2146284600F05B
:1003A000AFF804F5835021461C3004F08FF904F5B2
:1003B0008C502146083003F0B5F804F592502146E0
:1003C000183002F083FA04F597502146103004F0FB
:1003D000B1FE04F5C95021461C3004F0E5FB21466E
:1003E00004F5CC5001F09CF9214604F5D65002F0FA
:1003F00043F9204670BD04F5FF66B54204D0103EB7
:1004000030460CF087FCF8E72834AC4205D0203D9C
:1004100005F110000CF07EFCF7E70DF0B4FB10B511
:100420000446006803681B68984704F5D65002F03C
:10043000F5F904F5C47001F0BDF804F597501030DB
:1004400005F06AF804F5C9501C3004F071FD04F1A0
:10045000080003F0ABFE04F5CC5002F067F804F599
:100460009250183002F099FA04F58C50083002F0DE
:1004700003FE04F583501C30BDE8104004F05BBB64
:1004800038B5044600680368DB689847054604F5FC
:10049000CC5002F038F8B0B104F59250183002F0A8
:1004A00000FB04F58C50083002F076FF04F59750FD
:1004B000103004F07DFF20680368DB68984741F640
:1004C000D423401BE05004F10805284603F0F0FC5B
:1004D000284603F05AFC04F5D65002F0EDF904F575
:1004E000C9501C3004F0B8FC04F583501C30BDE842
:1004F000384004F0B8BA41F6D423C0587047000021
:10050000F8B500F5D062054600F11003002043F86D
:10051000080C10339342FAD12C46C5F8F01E05F5AD
:10052000CE670026A3682BB10322214620469847B8
:10053000A660E6601034A742F4D12846F8BD70B535
:1005400000EB011404F6140402F1100552F8046BD8
:10055000AA4244F8046BF9D101F5CF7240F8223079
:100560000144002381F8843E70BD70B500EB011496
:1005700004F6140402F1100552F8046BAA4244F880
:10058000046BF9D101F5CF7240F822300144012308
:1005900081F8843E70BD10B500F5CF61002300F6F0
:1005A0001402914203D211F8014B6340F9E700F6BF
:1005B00084618A4203D012F8014B6340F9E700F6E8
:1005C000EB60814203D011F8012B5340F9E7184644
:1005D00010BDF0B5DE4B00F6140203F1100153F824
:1005E000044B8B4242F8044BF9D14FF46123C0F81D
:1005F0007836002380F8843ED64B00F6240203F1BF
:10060000100153F8044B8B4242F8044BF9D10123FB
:10061000C0F87C36002380F8853ECF4B00F63402CC
:1006200003F1100153F8044B8B4242F8044BF9D10B
:100630000123C0F88036002380F8863EC74B00F6C1
:10064000440203F1100153F8044B8B4242F8044B6F
:10065000F9D10A23C0F88436002380F8873EC04BC6
:1006600000F6540203F1100153F8044B8B4242F898
:10067000044BF9D1C823C0F88836002380F8883E9F
:10068000B84B00F6640203F1100153F8044B8B429F
:1006900042F8044BF9D14FF4FA73C0F88C360023BA
:1006A00080F8893EB04B00F6740203F1100153F854
:1006B000044B8B4242F8044BF9D13223C0F89036F8
:1006C000002380F88A3EA94B00F6840203F1100152
:1006D00053F8044B8B4242F8044BF9D13223C0F853
:1006E0009436002380F88B3EA14B00F6940203F170
:1006F000100153F8044B8B4242F8044BF9D11423F8
:10070000C0F89836002380F88C3E9A4B00F6A4027D
:1007100003F1100153F8044B8B4242F8044BF9D11A
:100720002823C0F89C36002380F88D3E924B00F6BB
:10073000B40203F1100153F8044B8B4242F8044B0E
:10074000F9D13223C0F8A036002380F88E3E8B4BBF
:1007500000F6C40203F1100153F8044B8B4242F837
:10076000044BF9D13223C0F8A436002380F88F3E21
:10077000834B00F6D40203F1100153F8044B8B4273
:1007800042F8044BF9D14FF07E53C0F8A83601234C
:1007900080F8903E7B4B00F6E40203F1100153F821
:1007A000044B8B4242F8044BF9D1774901230C46A4
:1007B00080F8913E754BC0F8AC1600F6F40203F1D8
:1007C000100553F8041BAB4242F8041BF9D1012277
:1007D00080F8922E6E4A0023C0F8B03600F604115D
:1007E00002F1100552F8046BAA4241F8046BF9D1EA
:1007F000012280F8932E674AC0F8B43600F614112F
:1008000002F1100552F8046BAA4241F8046BF9D1C9
:10081000012280F8942E604AC0F8B84600F62411F0
:1008200002F1100452F8045BA24241F8045BF9D1D2
:10083000012280F8952E594AC0F8BC3600F63411D2
:1008400002F1100452F8045BA24241F8045BF9D1B2
:10085000012280F8962E524AC0F8C03600F64411A4
:1008600002F1100452F8045BA24241F8045BF9D192
:100870004FF07A52C0F8C426012280F8972E494AD8
:1008800000F6541102F1100452F8045BA24241F840
:10089000045BF9D1012280F8982E434AC0F8C8368B
:1008A00000F6641102F1100452F8045BA24241F810
:1008B000045BF9D1012280F8992E3C4AC0F8CC366D
:1008C00000F6741102F1100452F8045BA24241F8E0
:1008D000045BF9D1364C0122254680F89A2E354A20
:1008E000C0F8D04600F6841102F1100652F8044B0D
:1008F000B24241F8044BF9D1012280F89B2E2E4AD6
:10090000C0F8D43600F6941102F1100452F8046BCA
:10091000A24241F8046BF9D10121284A80F89C1EBB
:100920002749C0F8D82600F6A41401F1100651F8A2
:10093000047BB14244F8047BF9D1012180F89D1E6B
:100940002049C0F8DC5600F6B41401F110053BE074
:10095000801901088A190108911901089C190108D8
:10096000A8190108B6190108BF190108C81901081A
:10097000D2190108E0190108EB190108F61901085C
:10098000FE1901080C1A0108295C8F3D1C1A010888
:100990002C1A01083C1A01084D1A01085E1A0108B8
:1009A0006F1A01087E1A01088D1A01089C1A0108A5
:1009B0009A99193EAB1A0108BA1A0108CDCC4C3DE0
:1009C000C91A0108D91A010851F8046BA94244F860
:1009D000046BF9D1012180F89E1EDD49C0F8E03694
:1009E00000F6C41401F1100551F8046BA94244F853
:1009F000046BF9D1012180F89F1ED649C0F8E42686
:100A000000F6D41401F1100551F8046BA94244F822
:100A1000046BF9D1012180F8A01ECF49C0F8E83657
:100A200000F6E41401F1100551F8046BA94244F8F2
:100A3000046BF9D1C0F8EC36012380F8A13EC74B16
:100A400000F6F41103F1100453F8045BA34241F8DB
:100A5000045BF9D10023C0F8F036012380F8A23EF0
:100A6000BF4B00F6042103F1100453F8045BA342CA
:100A700041F8045BF9D1012380F8A33EB94BC0F8DB
:100A8000F42603F1100100F6142253F8044B8B42B4
:100A900042F8044BF9D14FF4F573C0F8F83600234F
:100AA00080F8A43EB04B00F6242203F1100153F865
:100AB000044B8B4242F8044BF9D1AC4B00F6342284
:100AC000C0F8FC36012380F8A53EA94B03F11001C4
:100AD00053F8044B8B4242F8044BF9D10123A54A49
:100AE00080F8A63EA44BC0F8002700F6542103F17D
:100AF000100453F8045BA34241F8045BF9D14FF4AE
:100B00007A73C0F80837002380F8A83E9B4B00F6A4
:100B1000442103F1100453F8045BA34241F8045B41
:100B2000F9D14FF4FA63C0F80437002380F8A73EE8
:100B3000934B00F6642103F1100453F8045BA342C5
:100B400041F8045BF9D10123C0F80C37002380F889
:100B5000A93E8C4B00F6742103F1100453F8045B9A
:100B6000A34241F8045BF9D140F6B833C0F810371E
:100B7000002380F8AA3E844B00F6842103F1100480
:100B800053F8045BA34241F8045BF9D1012180F8DA
:100B9000AB1E7E494FF07C53C0F8143700F6942406
:100BA00001F1100551F8046BA94244F8046BF9D126
:100BB000774900F6A424C0F81817012180F8AC1E6C
:100BC000744901F1100551F8046BA94244F8046B13
:100BD000F9D10121C0F81C17002180F8AD1E6E4923
:100BE00000F6B42401F1100551F8046BA94244F851
:100BF000046BF9D10121C0F82017002180F8AE1E46
:100C0000664900F6C42401F1100551F8046BA942AD
:100C100044F8046BF9D10121C0F82417002180F8B1
:100C2000AF1E5F4900F6D42401F1100551F8046BA2
:100C3000A94244F8046BF9D10021C0F8281780F8C4
:100C4000B01E584900F6E42401F1100551F8046B78
:100C5000A94244F8046BF9D1C0F82C27012280F88E
:100C6000B12E514A00F6F42102F1100452F8045B4F
:100C7000A24241F8045BF9D1C0F83037012380F873
:100C8000B23E4A4B00F6043203F1100153F8044B14
:100C90008B4242F8044BF9D1012280F8B32E444A2A
:100CA0000023C0F8343700F6143102F1100452F872
:100CB000045BA24241F8045BF9D1012280F8B42E12
:100CC0003C4AC0F8383700F6243102F1100452F8DB
:100CD000045BA24241F8045BF9D1012280F8B52EF1
:100CE000354AC0F83C3700F6343102F1100452F8AE
:100CF000045BA24241F8045BF9D1012280F8B62ED0
:100D00002E4AC0F8403700F6443102F1100452F880
:100D1000045BA24241F8045BF9D1012280F8B72EAE
:100D2000274AC0F8443700F6543102F1100452F853
:100D3000045BA24241F8045BF9D1012280F8B82E8D
:100D4000204AC0F8483700F6643102F110043BE055
:100D5000E91A0108F91A0108051B0108111B01080D
:100D60001D1B0108251B0108361B0108CDCCCC3DFD
:100D7000451B01089A99993E521B0108601B010806
:100D80006E1B01087E1B01088C1B0108961B0108C5
:100D9000CDCC4C3DA01B0108B01B0108BF1B0108B6
:100DA000CE1B0108DB1B0108EA1B0108F81B010828
:100DB000041C0108101C01081C1C0108271C010848
:100DC000321C01083D1C010852F8045BA24241F8A4
:100DD000045BF9D1012280F8B92EE24AC0F84C3701
:100DE00000F6743102F1100452F8045BA24241F89B
:100DF000045BF9D1012280F8BA2EDB4AC0F85037E3
:100E000000F6843102F1100452F8045BA24241F86A
:100E1000045BF9D1012280F8BB2ED44AC0F85437C4
:100E200000F6943102F1100452F8045BA24241F83A
:100E3000045BF9D1012180F8BC1ECD494FF07E52F0
:100E4000C0F8582700F6A43401F1100551F8046BDE
:100E5000A94244F8046BF9D1012180F8BD1EC549AF
:100E6000C0F85C3700F6B43401F1100551F8046B9A
:100E7000A94244F8046BF9D1012180F8BE1EBE4995
:100E8000C0F8603700F6C43401F1100551F8046B66
:100E9000A94244F8046BF9D1012180F8BF1EB7497B
:100EA000C0F8643700F6D43401F1100551F8046B32
:100EB000A94244F8046BF9D1012180F8C01EB04961
:100EC000C0F8682700F6E43401F1100551F8046B0E
:100ED000A94244F8046BF9D1012180F8C11EA94947
:100EE000C0F86C3700F6F43401F1100551F8046BCA
:100EF000A94244F8046BF9D1C0F87037012380F897
:100F0000C23EA14B00F6044103F1100453F8045B08
:100F1000A34241F8045BF9D1012180F8C31E9B492B
:100F20000023C0F8743700F6144401F1100551F89D
:100F3000046BA94244F8046BF9D1C0F87827012268
:100F400080F8C42E924A00F6244102F1100452F8AF
:100F5000045BA24241F8045BF9D1012280F8C52E5E
:100F60008C4AC0F87C3700F6344102F1100452F884
:100F7000045BA24241F8045BF9D1012280F8C62E3D
:100F8000854AC0F8803700F6444102F1100452F857
:100F9000045BA24241F8045BF9D1012280F8C72E1C
:100FA0007E4AC0F8843700F6544102F1100452F82A
:100FB000045BA24241F8045BF9D1012280F8C82EFB
:100FC000774AC0F8883700F6644102F1100452F8FD
:100FD000045BA24241F8045BF9D1724A00F6744105
:100FE000C0F88C27012280F8C92E6F4A02F1100444
:100FF00052F8045BA24241F8045BF9D1C0F8903783
:10100000012380F8CA3E694B00F6844203F11001C7
:1010100053F8044B8B4242F8044BF9D10123C0F83A
:101020009437002380F8CB3E614B00F6944203F1E5
:10103000100153F8044B8B4242F8044BF9D10023C2
:10104000C0F8983780F8CC3E5A4B00F6A44203F122
:10105000100153F8044B8B4242F8044BF9D10123A1
:10106000C0F89C37002380F8CD3E534B00F6B442C5
:1010700003F1100153F8044B8B4242F8044BF9D1B1
:101080000323C0F8A037002380F8CE3E4B4B00F678
:10109000C44203F1100153F8044B8B4242F8044B55
:1010A000F9D10223C0F8A437002380F8CF3E444B87
:1010B00000F6D44203F1100153F8044B8B4242F87E
:1010C000044BF9D10423C0F8A837002380F8D03EA0
:1010D0003C4B00F6E44203F1100153F8044B8B4201
:1010E00042F8044BF9D10423C0F8AC37002380F850
:1010F000D13E354B00F6F44203F1100153F8044B96
:101100008B4242F8044BF9D14FF0FF33C0F8B037AF
:10111000002380F8D23E2D4B00F6045203F110015B
:1011200053F8044B8B4242F8044BF9D14FF0FF3394
:10113000C0F8B437002380F8D33E254B00F6145294
:1011400003F1100153F8044B8B4242F8044BF9D1E0
:101150000623C0F8B837002380F8D43E1D4B00F6B4
:10116000245239E04D1C01085D1C01086D1C01086A
:101170007A1C0108871C0108941C0108A11C0108A5
:10118000AE1C0108BB1C0108C81C0108D51C0108C5
:10119000E21C0108ED1C0108F81C0108031D0108F0
:1011A0000D1D01080060AD441A1D01082A1D01082B
:1011B000321D01083B1D0108441D01084D1D010899
:1011C000561D0108661D0108761D0108861D0108CF
:1011D000921D01089D1D010803F1100153F8044BF5
:1011E0008B4242F8044BF9D10123C0F8BC370023ED
:1011F00080F8D53EAF4B00F6345203F1100153F89E
:10120000044B8B4242F8044BF9D10123C0F8C0379C
:10121000002380F8D63EA84B00F6445203F110019B
:1012200053F8044B8B4242F8044BF9D10123C0F828
:10123000C437002380F8D73EA04B00F6545203F188
:10124000100153F8044B8B4242F8044BF9D10123AF
:10125000C0F8C837002380F8D83E994B00F6645296
:1012600003F1100153F8044B8B4242F8044BF9D1BF
:10127000944B00F67452C0F8CC37012380F8D93E65
:10128000914B03F1100153F8044B8B4242F8044B8D
:10129000F9D14FF47A73C0F8D037002380F8DA3EE2
:1012A0008A4B00F6845203F1100153F8044B8B4231
:1012B00042F8044BF9D10123C0F8D437002380F859
:1012C000DB3E834B00F6945203F1100153F8044BBC
:1012D0008B4242F8044BF9D10123C0F8D8370023E0
:1012E00080F8DC3E7B4B00F6A45203F1100153F86A
:1012F000044B8B4242F8044BF9D10122764B80F823
:10130000DD2E764AC0F8DC3700F6B45102F1100445
:1013100052F8045BA24241F8045BF9D1C0F8E0370F
:10132000012380F8DE3E6E4B00F6C45203F110013B
:1013300053F8044B8B4242F8044BF9D10122694B1C
:1013400080F8DF2E684AC0F8E43700F6D45102F185
:10135000100452F8045BA24241F8045BF9D1C0F8D2
:10136000E837012380F8E03E604B00F6E45203F1D9
:10137000100153F8044B8B4242F8044BF9D15C4BFB
:1013800000F6F452C0F8EC37012380F8E13E594BE7
:1013900003F1100153F8044B8B4242F8044BF9D18E
:1013A000FF23C0F8F037002380F8E23E524B00F6EE
:1013B000046203F1100153F8044B8B4242F8044BD2
:1013C000F9D10023C0F8F43780F8E33E4B4B00F628
:1013D000146203F1100153F8044B8B4242F8044BA2
:1013E000F9D10023C0F8F83780F8E43E444B00F60A
:1013F000246203F1100153F8044B8B4242F8044B72
:10140000F9D10023C0F8FC3780F8E53E3D4B00F6EB
:10141000346203F1100153F8044B8B4242F8044B41
:10142000F9D10023C0F8003880F8E63E364B00F6CC
:10143000446203F1100153F8044B8B4242F8044B11
:10144000F9D1012280F8E72E304A0023C0F8043891
:1014500000F6546102F1100452F8045BA24241F814
:10146000045BF9D1012280F8E82E294AC0F8083837
:1014700000F6646102F1100452F8045BA24241F8E4
:10148000045BF9D1C0F80C38012380F8E93E214B08
:1014900000F6746203F1100153F8044B8B4242F8DA
:1014A000044BF9D11C4BC0F81038012380F8EA3EF8
:1014B000F0BD00BFAA1D0108B71D0108C41D010829
:1014C000D11D0108CDCCCC3DDD1D0108EB1D01086F
:1014D000F81D0108041E01084C37493F101E010881
:1014E0001D1E0108D00F49402D1E01083E1E010897
:1014F00060E5C03F4D1E0108531E01085E1E010835
:101500006B1E0108731E01087E1E0108861E01085D
:101510008F1E0108961E01089A99193E10B50446BF
:10152000D0F8F03E4FF40862186804F5CE61036805
:10153000DB6E9847D8B1D4F870260D4B9A4215D17E
:10154000B4F87436B3F5086F10D194F87636BE2B24
:101550000CD194F8EB3EEF2B08D12046FFF71BF897
:1015600094F8EC3E1B1A5842584110BD002010BDA3
:10157000A0350AC20E4B70B5C0F87036BE234FF4CA
:10158000086580F87636EF230446A0F8745680F894
:10159000EB3EFFF700F8D4F8F03E84F8EC0E186844
:1015A0002A46036804F5CE611B6FBDE870401847FA
:1015B000A0350AC210B50446D0F8F03E186803689A
:1015C0009B6E98472046FFF7A9FF38B92046FFF7E2
:1015D00000F82046BDE81040FFF7CCBF10BDF0B5C5
:1015E00000F6130301F10F0600201C464A1E12F8F4
:1015F000017F14F8015FBD4203D145B1B242F6D17B
:10160000F0BD013080B2672803F11003EDD1F0BDC9
:1016100000EB011008B583680BB10BF084FB08BD2B
:10162000662970B505460C4611D800EB8103D3F846
:101630007866B2420BD0C3F87826FFF7E9FFD5F8F9
:10164000F00E2146083002F055FB012070BD00204D
:1016500070BD38B504461546FFF7C1FF2A4601465E
:101660002046BDE83840FFF7DBBFFFF7F2BF662931
:10167000F8B504460D46174614D800EB8106D6F897
:101680007806114606F00AFF60B929462046C6F8DA
:101690007876FFF7BDFFD4F8F00E083002F072FB49
:1016A0000120F8BD0020F8BD2DE9F043002387B0EC
:1016B00004938B68150181460E469046471902AC8B
:1016C00033B1022220469847F3680593B368049328
:1016D00094E803008DE8030009EB050393E8030099
:1016E00084E803009DE8030083E80300049BBA68D4
:1016F000BB60059B0492FA682046FB6005920BF0E4
:1017000009FB414630460BF00EFB07B0BDE8F08305
:1017100020460BF0FFFA0CF036FA00BF0000000084
:1017200073B5044600252B462A4640F8081B294677
:1017300004F02FFF2B462A46294604F1140004F03A
:1017400028FF2B462A4600954FF07E5104F12000D9
:10175000002605F04EF800220023C4E90E23294696
:101760002B462A46256325646564A56484F84C608D
:1017700025656565A56584F85C60256684F8646008
:1017800004F1680004F005FF2B462A46294684F838
:10179000746084F8756084F8766084F87760A56773
:1017A000E567C4F88050C4F88450C4F88850C4F881
:1017B0008C5084F8906084F8916084F89260C4F84A
:1017C0009460C4F89860A4F89E6004F1A00004F04E
:1017D000E0FE2B462A462946A4F8AC6004F1B0008E
:1017E00004F0D7FE2A462946194B04F1BC0004F048
:1017F000D0FE184BC4F8C8501A46194604F1CC0064
:1018000004F0C7FE144B04F1D8001A46194604F040
:10181000C0FE204684F8E460C4F8E850A4F8EC6008
:10182000C4F8F060C4F8F450C4F8F85084F8FC60D0
:10183000A4F8FE60C4F80061C4F80451C4F808516B
:1018400084F8186184F8286184F8386102B070BDAA
:101850000AE81C4100007AC400007A442DE9FF41E7
:10186000044654F8205B0646D5F8940905F0F8FFC5
:101870002BA3D3E9002306F047F806F01DFB8046B2
:10188000D5F8900905F0ECFF25A3D3E9002306F075
:101890003BF806F011FB0746D5F88C0905F0E0FF90
:1018A0001FA3D3E9002306F02FF806F005FB4346FB
:1018B00001463A46684605F013FE9DE80F0084E8AD
:1018C0000F0034680021D4F8C80806F0E7FD10B313
:1018D0000021D4F8CC0806F0E1FDE0B10021D4F8F5
:1018E000D00806F0DBFDB0B10021D4F8BC0806F04A
:1018F000D5FD80B10021D4F8C00806F0CFFD50B16D
:101900000021D4F8C40806F0C9FD20B1202104F557
:10191000D65000F0C1FE04B0BDE8F081AFF3008006
:1019200006ED91AA46DF913FFFF798BF38B50368EF
:101930000446186803689B689847D4F8943003F508
:101940007A7398424BD994F87650C4F8940075B9DC
:101950002368186803681B6D984740B1206801230D
:1019600084F876301E4A2946083002F012FA94F8BC
:10197000775075B92368186803689B6C984740B125
:101980002068012384F87730164A2946083002F08F
:1019900000FA94F8745075B92368186803681B6CD2
:1019A000984740B12068012384F874300E4A2946D4
:1019B000083002F0EEF994F8755085B9236818687C
:1019C00003689B6B984750B12068012384F87530F9
:1019D0002946BDE83840054A083002F0DAB938BD7A
:1019E000A41E0108B01E0108C11E0108D11E010875
:1019F00070B50446012680F89160006800252A46EB
:101A00002F2100F5C470FFF732FE20682A463021EE
:101A100000F5C470FFF72BFE20682A46312100F53F
:101A2000C470FFF724FE304670BD70B50446FFF762
:101A3000DFFF2068002501262A4684F890603221C5
:101A400000F5C470FFF713FE20682A46332100F525
:101A5000C470FFF70CFE20682A46342100F5C470DC
:101A6000FFF705FE304670BD08B500220023C0F820
:101A7000F420C0F8F820A0F8EC3080F8E4300068DA
:101A8000442100F5C470FFF7F2FD012008BD08B540
:101A900000220023C0F80421C0F80821A0F8FE307D
:101AA00080F8FC300068462100F5C470FFF7DFFDC8
:101AB000012008BD90F8910080F00100704730B51A
:101AC000044600F1A00500F1140185B0284604F099
:101AD000B3FDB4F89E00013080B2B0F57A7FA4F86F
:101AE0009E0047D906F0EEFA2946024601A804F006
:101AF000E5FD01A805F09CFB4FF07E5106F0D8FCF7
:101B0000236800B303F5C470019A2F21FFF7AFFDDE
:101B10002068029A302100F5C470FFF7A8FD206804
:101B2000039A312100F5C470FFF7A1FD206800F58C
:101B30009250183000F02CFF2068072100F5D65095
:101B400000F0C8FD0AE0082103F5D65000F0C2FD00
:101B50002068094A0221083002F01BF9002384F8AA
:101B60009130A4F89E300023C4F8A030C4F8A4300B
:101B7000C4F8A83005B030BDE41E01082DE9FF47C8
:101B8000074604A800E90E00DDF830A0019C51468C
:101B90002046029D039EDDF83490DDF8388006F083
:101BA000A5FC00B954464946284606F09FFC00B9FA
:101BB0004D464146304606F099FC08B9434600E0E0
:101BC00033462A462146384604F0E3FC384604B042
:101BD000BDE8F0872DE9FF47074604A800E90E009D
:101BE000DDF830A0019C51462046029D039EDDF8A1
:101BF0003490DDF8388006F05BFC00B95446494665
:101C0000284606F055FC00B94D464146304606F0E0
:101C10004FFC08B9434600E033462A462146384681
:101C200004F0B7FC384604B0BDE8F0872DE9F04F6A
:101C300004469BB000F1B00617AD00F1080204AFF6
:101C40003146284604F0C4FC384604F1BC0229465B
:101C500004F0BEFC97E8070086E80700216BD4F883
:101C6000C80006F07FF9A368D4F8CC70C4F8C800A7
:101C700039461846D4F8D080D4F8D490D4F80CB0B3
:101C8000D4F810A0039306F013FC08B9039B1F4679
:101C90004146584606F00CFC00B9D8465146484625
:101CA00006F024FC08B9534600E04B46424639464C
:101CB000284604F1CC0704F06CFC95E8070087E89F
:101CC0000700A368D4F8D85019462846D4F8DC8019
:101CD000D4F8E090D4F80CB0D4F810A0039306F038
:101CE000E7FB08B9039B1D465946404606F0E0FB5A
:101CF00000B9D8465146484606F0DAFB08B95346C3
:101D000000E04B460DF1500929464246484604F092
:101D100040FC99E80700B4F8AC3004F1D805013371
:101D20009BB2B3F57A7F85E80700A4F8AC3040F2A7
:101D3000A180216808A8D1F8DC38D1F8D828D1F8DA
:101D4000D41804F026FCD4F8C82008A90EA804F082
:101D50009BFC0EAA314611A804F054FCB4F8AC0068
:101D600006F0B0F911A902460BA804F0A7FC2A4618
:101D7000394611A804F046FC11A805F059FA4FF0B5
:101D80007E5106F0B3FB0546206845B13B4A02216F
:101D9000083001F0FEFF002384F8903050E000F599
:101DA0009250183000F0C0FD84F890500BA805F058
:101DB0003FFA334906F07CFB236800B303F5C47097
:101DC0000B9A3221FFF753FC20680C9A332100F55F
:101DD000C470FFF74CFC20680D9A342100F5C470E4
:101DE000FFF745FC20682946264A083001F0D1FF5C
:101DF0002068202100F5D65000F05BFC20E00BA805
:101E000003F1080505F014FA06460BA805F010FAD0
:101E10000746304606F09AFB1B490646384606F050
:101E2000A9F906F093FB4FF47A72B0FBF2F303FBCF
:101E30001200022100903346144A284601F0A9FFFF
:101E40000023A4F8AC300023C4F8B030C4F8B43098
:101E5000C4F8B830C4F8C8300D4BC4F8CC30C4F85E
:101E6000D030C4F8D430084BC4F8D830C4F8DC30D3
:101E7000C4F8E0301BB0BDE8F08F00BF031F0108BD
:101E800000004040211F010800007A44361F01086D
:101E900000007AC403682DE9F0410446186803681D
:101EA0009B689847D4F8F030143398425FD9B4F85F
:101EB000EC500135ADB2FF2DA4F8EC5024D92D49DA
:101EC000D4F8F80006F0F4FA236870B1D4F8F420DE
:101ED000442103F5C470FFF7CAFB2068012384F88E
:101EE000E430254A0021083003E0244A022103F1AE
:101EF000080001F04EFF0023C4F8F430C4F8F830B5
:101F00000023A4F8EC302BE0802D29D9D4F8E81078
:101F1000606D06F025F8D4F8F4708046394606F076
:101F20001FF80646A5F1800006F0D0F801463046BD
:101F300006F0D4F9394606F015F80146C4F8F40065
:101F4000404606F00DF8314606F014F90C4906F04B
:101F5000C5F90146D4F8F80006F004F8C4F8F80012
:101F60002368186803689B689847C4F8F000BDE8C8
:101F7000F08100BF0000C841551F01086A1F010819
:101F80000000FC4203682DE9F0410446186803682C
:101F90009B689847D4F80031143398425BD9B4F861
:101FA000FE500135ADB2FF2DA4F8FE5024D92B49C7
:101FB000D4F8080106F07CFA236870B1D4F8042143
:101FC000462103F5C470FFF752FB2068012384F813
:101FD000FC30234A0021083003E0224A022103F1A9
:101FE000080001F0D6FE0023C4F80431C4F808311B
:101FF0000023A4F8FE3027E0802D25D9D4F80481F1
:10200000676C4146384605F0ABFF0646A5F18000F7
:1020100006F05CF80146304606F060F9414605F0EE
:10202000A1FF0146C4F80401384605F099FF314686
:1020300006F0A0F80C4906F051F90146D4F8080161
:1020400005F090FFC4F808012368186803689B68CE
:102050009847C4F80001BDE8F08100BF0000C84205
:102060008E1F0108A71F01080000FC4270B505681B
:10207000066B0446D5F8D418304606F07BF8D5F840
:10208000C81805F06FFF0146A06805F069FFA06061
:10209000D5F8D818304606F06DF8D5F8CC1805F00C
:1020A00061FF0146E06805F05BFFE060D5F8DC18F1
:1020B000304606F05FF8D5F8D01805F053FF01461A
:1020C000206905F04DFF2061D5F8BC18606905F066
:1020D00047FF6061D5F8C018A06905F041FFA06115
:1020E000D5F8C418E06905F03BFFE06170BD0368F6
:1020F0002DE9F0410446186886B00368DB6A98470A
:1021000006462068002E56D0022100F5D65000F079
:10211000D0FA2368186803689B689847234653F8E9
:10212000842BC4F89800106804F13801026800910B
:10213000156B04F1780104F13002A847064608B98E
:1021400000265EE0A36F02ADA360E36F04F1080711
:10215000E360D4F8803004F120083A462361414618
:10216000284604F04DFD95E80700D4F8843087E850
:1021700007006361D4F8883004F11407A361D4F830
:102180008C303A46E3614146284604F039FD95E833
:10219000070094F8903087E8070013B12046FFF756
:1021A00045FD94F8913013B12046FFF788FC204696
:1021B000FFF75CFF25E041F6C425435D0068002B76
:1021C000036818BF0A279B6808BF4FF47A779847BF
:1021D000D4F898303B449842B2D923681868036811
:1021E0009B6898472368C4F898005A5D1AB9186824
:1021F00003685B6B98472068022100F5D65000F019
:102200004BFA304606B0BDE8F0812DE9F84304688A
:102210000546D4F80419806E05F0A2FED4F808191A
:102220008046E86E05F09CFED4F80C190746286F2E
:1022300005F096FED4F8E0180646404605F09AFFF1
:10224000D4F8E4188146384605F094FF0146484624
:1022500005F088FED4F8E8188146304605F08AFF7C
:102260000146484605F07EFEA866D4F8EC184046C4
:1022700005F080FFD4F8F0188146384605F07AFF63
:102280000146484605F06EFED4F8F4188146304603
:1022900005F070FF0146484605F064FEE866D4F894
:1022A000F818404605F066FFD4F8FC18804638461A
:1022B00005F060FF0146404605F054FED4F80019D1
:1022C0000746304605F056FF0146384605F04AFEFF
:1022D0002867BDE8F88390F8E43010B504460BB9E0
:1022E000FFF7D8FD2368606DD3F8101905F038FEAC
:1022F000606504F0ECFE2368D3F8141905F030FE95
:10230000206510BD90F8FC3070B504460BB9FFF79E
:1023100039FE2368606CD3F8181905F021FE94F893
:10232000743060640BB1656D00E00C4D04F08BFC03
:102330000646606C04F02EFFA16C05F01BFF2946D9
:1023400005F0CCFF04F031FF05460549304605F0A5
:1023500011FF294605F0C2FF206470BD80E6C54725
:102360008D97C44138B50446084611461D4605F010
:10237000B5FF01222060A2606560227338BD2DE99F
:10238000F8430F46044641683846904605F0E8FD9C
:10239000A56820F000490646284605F097FE21680A
:1023A00005F0E8FE0146484606F082F890B3C8F80A
:1023B0000070304604F047FC0546206805F050FAEE
:1023C00080463046894604F0E5FE05F049FA0246AB
:1023D0000B46404649460BF0C1FF06460F462846CD
:1023E00005F03EFA32463B4605F08EFA0646606836
:1023F0000F4605F035FA0B4602463946304605F0E1
:10240000D1F805F059FDA3686060012B06DD013BA2
:10241000A36003E00135A560BDE8F8830120BDE8B5
:10242000F88330B590F8923085B00446032B61D81C
:10243000DFE803F0021F3B4E90F87430002B59D0B8
:10244000054655F8543B01AA1868694603685B6C59
:1024500098472A46009904F58670FFF790FF84F8A4
:102460005C00002846D0019B2046A365FFF733FFA0
:1024700040E090F87730002B3CD0054655F8443BBF
:1024800001AA186869460368DB6C98472A460099D8
:1024900004F58E70FFF773FF84F84C0050B3019B76
:1024A0002046A364FFF72EFF24E090F876300BB3AC
:1024B000054655F8603B186803685B6D98472A46E7
:1024C000014604F59670FFF75AFF84F8640011E0A6
:1024D00090F8753073B1036801A918680368DB6B65
:1024E0009847019B2046A366029BE366039B2367F4
:1024F000FFF78BFE94F89230013303F0030384F866
:10250000923005B030BD38B50446FFF7F0FD054602
:1025100050B941F6C4232268D35C13B92046FFF7B3
:1025200005FA2046FFF77DFF284638BD70B5044602
:10253000006888B04C4D00F5C476002301A904A8BA
:102540000195029303940AF025FC632204A9304606
:10255000FFF7AAF804A80AF0DDFB2068002300F5C5
:10256000C47601A904A80195029303940AF012FC11
:10257000642204A93046FFF797F804A80AF0CAFBC2
:102580002068019500F5C47601A9002504A80295EC
:1025900003940AF0FFFB652204A93046FFF784F894
:1025A00004A80AF0B7FB2068022184F89C5000F5CB
:1025B000D65000F07EF82368186803685B6A984775
:1025C0002046FFF74BF9236884F89250D3F814099A
:1025D00005F046F920A3D3E9002305F095F902465A
:1025E0000B460020214904F0DBFF1DA3D3E90023A3
:1025F0000BF042FF05F060FC1D4905F0BBFD1D4AD4
:102600004FF08143C4F80C31C4F81C21012300228F
:102610004FF08041C4F8E800C4F81431C4F8100148
:1026200084F81831C4F82431C4F8202184F8283102
:10263000C4F82C11C4F83431C4F8302184F838318E
:1026400008B070BDFFE704A80AF064FB0BF09BFA2A
:10265000F9E700BFAFF30080C6F9B55B6DAAF73E9E
:10266000DAACFA5C6D051540291900080000F03F4E
:1026700080E6C5470000904000220160C2600274FD
:102680000271827142710281704703890BB1052189
:1026900000E0062100F01EB810B504460389194376
:1026A0000181FFF7F2FF2068BDE81040083001F01B
:1026B0001FBB038910B50B4204460AD023EA01036D
:1026C0000381FFF7E2FF2068BDE81040083001F009
:1026D0000FBB10BD037C70B504460D46052B00F200
:1026E0009980DFE803F003075B257A40002940F07A
:1026F00091804CE04D1E042D00F28C80DFE805F047
:10270000068A492003000123837172E00068D0F833
:10271000B0383BB10523237400F5CC50BDE87040C0
:10272000FFF766B901232371083001F0E1FA24E0D4
:102730004D1E052D6ED8DFE805F00D6D2C036D0ADA
:1027400004212046FFF7B5FF0023637170BD00230D
:1027500083711CE0006823892F4A02210830BDE8FC
:10276000704001F016BBCD1E052D53D8DFE805F0F3
:1027700011521333030F0123037102233AE00023A4
:1027800003710068083001F0B3FAA3798BBB012311
:1027900030E004211AE00323037427E08D1E042D8A
:1027A00038D801A353F825F07F270008BD2700087B
:1027B00015280008ED270008D727000801234371DA
:1027C0000068083001F094FA042121742046BDE825
:1027D0007040FFF761BF002309E004290CD00529F0
:1027E00004D0022916D10023037102E00123A37152
:1027F00070BD0323237470BD0068083001F078FABF
:10280000002363710223237429462046BDE87040EB
:10281000FFF74FBF70BD00BFCF1F010810B50446C2
:102820000021FFF757FF2046FFF72FFF2368BDE881
:10283000104018680368D3F884301847427970B59F
:10284000036804469AB1C568186803689B6898478E
:10285000854230D2236818680368D3F888309847D7
:102860002368186803689B689847643015E082798C
:10287000AAB1C568186803689B68984785421AD250
:10288000236818680368D3F8883098472368186865
:1028900003689B68984700F5FA70E06070BD0279A4
:1028A0001868036812B9D3F8843001E0D3F8803097
:1028B000BDE87040184770BD10B50446FFF7E5FE4F
:1028C0002046BDE81040FFF7B9BF00BF38B5044649
:1028D0000D460022134B114603F05BFEE56004F148
:1028E000100003F051FE04F11C0003F07AFF04F124
:1028F000500003F049FE04F15C0003F045FE04F1D2
:10290000680003F041FE04F1740003F03DFE04F1A1
:10291000800003F039FE04F18C0003F035FE204600
:1029200038BD00BF000080BF4FF07E5310B5C361BB
:102930000023036243628362036143618361C36274
:1029400003634363036543658365C3650366436649
:102950008366C366036743678367C0F88030C0F847
:102960008430C0F88830094AC3680446C2671868D2
:102970000368DB689847C4E90E01E068082100F5A8
:10298000D650BDE81040FFF794BE00BF0AE81CC156
:1029900000238366C3660367704730B400240025B4
:1029A000C0E91045C0E9124530BCFFF7BDBF2DE9B5
:1029B000F843C5680446D5F8B8684FF07E503146F4
:1029C00005F0CEFA41F68813E95805EB03080746EF
:1029D00005F0D0FB616F8146304605F0CBFB014628
:1029E000484605F0BFFAD8F804106067384605F08D
:1029F000C1FBA16F8146304605F0BCFB014648464D
:102A000005F0B0FAD8F80810A067384605F0B2FB18
:102A1000E16F0746304605F0ADFB0146384605F04C
:102A2000A1FAE067D5F8B4684FF07E50314605F062
:102A300097FA41F69413E95805EB0308074605F0A9
:102A400099FBD4F880100546304605F093FB01460B
:102A5000284605F087FAD8F80410C4F880003846F4
:102A600005F088FBD4F884100546304605F082FB5B
:102A70000146284605F076FAD8F80810C4F8840014
:102A8000384605F077FBD4F888100546304605F047
:102A900071FB0146284605F065FAC4F88800BDE8D8
:102AA000F8832DE9F04F0446C068A3B000F5CC537D
:102AB0000833D3E90C23CDE90223D4E9102352EAE9
:102AC000030106D1DDE90223C4E91023C4E912237E
:102AD000CDE2DDE902569E4208BF954209D210219F
:102AE00000F5D650FFF7D8FDDDE90223C4E9102335
:102AF000BDE200F0BC82102100F5D650FFF7D9FDF1
:102B0000D4E91001DDE90223121A63EB010319462F
:102B1000104605F0E9FA5F4905F02CFBDDE90223D8
:102B2000C4E91023C4E90E23E5684FF47A72D5F89E
:102B300098388046DDE9020183FB0223994208BFF1
:102B400090420CD25449D5F89C0805F013FB524929
:102B50008246D5F8A00805F00DFB064603E0D5F83F
:102B60009CA8D5F8A068204604F17407FFF71FFF62
:102B7000384603F013FD81460EA803F005FDE36817
:102B80000025D3F8AC38002B00F06A824349484650
:102B900005F08EFC002800F063824149484605F0AC
:102BA000A5FC002800F05C82DDE902233946C4E977
:102BB000122317A804F08BFB17AA21461AA804F0C9
:102BC000DAFC04F11C021AA91EA803F019FE4FF04A
:102BD00040411E9805F0CEFA1F99074605F0CAFA43
:102BE000209981460E90384605F0C4FA49460746BA
:102BF0000F903046109505F0BDFA414605F0BAFA3F
:102C00000146A06E05F0ACF93946A066304605F0E5
:102C1000B1FA414605F0AEFA0146E06E05F0A0F9C2
:102C20002567E06611AE304603F0AEFCE368D3F8EA
:102C3000A438002B3CD004F15C0904F15005194A7A
:102C4000494614A803F03AFD174A294617A803F08D
:102C50001BFD04F1800717AA14A91AA803F0B8FCF9
:102C60000DF1280B114A39461EA803F00DFD1EAACE
:102C70001AA9584603F0ACFC9BE8070086E8070059
:102C800095E8070089E8070097E8070085E807004E
:102C900014E000BFBD378635000020417BBBE84211
:102CA000C8CB9B42000040C1ABAA2A3F5555D53E38
:102CB00004F1800393E8070086E8070004F1680345
:102CC0001A4611A91AA8079303F09CFC52460EA9B4
:102CD0001EA803F0D9FC1AA91EAA17A803F078FCB5
:102CE00017A803F05BFC0021074605F0FFFB002856
:102CF00000F08681179B189D0593E368199ED3F811
:102D0000A838002B00F0D780384604F0A9FD0BF05E
:102D10004BFD05F0D1F807461EA803F062FD3946C9
:102D2000404605F027FA4FF07C5105F023FA04F0F5
:102D300097FD804689460BF0C9FA05F0BDF8494673
:102D4000824640460BF050FB804689464FF07E504D
:102D5000394605F0C3FA04F083FD42464B4604F0C1
:102D6000D3FD05F0A9F8A36AD4F820800693059B4B
:102D70008346414603F1004005F0FCF9676A08907C
:102D80003946284605F0F6F9089B0146184605F035
:102D9000E7F806990890304605F0ECF9089B0146E3
:102DA000184605F0DDF8594605F0E4F9D4F81C9012
:102DB00008904946504605F0DDF9089B0146184643
:102DC00005F0D0F849461E90059805F0D3F939462C
:102DD0000890304605F0CEF9089B0146184605F0EC
:102DE000C1F808900699284605F0C4F9089B0146E9
:102DF000184605F0B5F8594605F0BCF9414608906B
:102E0000504605F0B7F9089B0146184605F0AAF8A8
:102E100049461F90284605F0ADF9414608903046D6
:102E200005F0A8F9089B0146184605F099F806999F
:102E30000890059805F09EF9089B0146184605F094
:102E400091F8594605F096F939460890504605F034
:102E500091F9089B0146184605F084F849462090F0
:102E6000304605F087F941460646284605F082F9C6
:102E70000146304605F076F839460546059805F0D6
:102E800079F90146284605F06BF8594605F072F9C4
:102E900006990546504605F06DF90146284605F0AD
:102EA00061F821901EA804F046FA04F11C050FC831
:102EB00085E80F00A4E0E36928461946069305F06B
:102EC00059F9D4F8209083464946304605F052F926
:102ED0000146584605F044F8D4F828A083465146E8
:102EE000059805F047F90146584605F03BF84FF0C4
:102EF0007C5105F03FF906990990059805F03AF9DB
:102F0000676A83463946304605F034F9014658462B
:102F100005F028F851468346284605F02BF901466E
:102F2000584605F01DF84FF07C5105F023F9059B3C
:102F30008346494603F1004005F01CF939460890E4
:102F4000284605F017F9089A0146104605F008F8DA
:102F500051460890304605F00DF9089A0146104692
:102F600004F0FEFF4FF07C5105F004F9069982460B
:102F7000304605F0FFF849460646284605F0FAF8BF
:102F80000146304604F0EEFF39460546059805F047
:102F9000F1F80146284604F0E3FF4FF07C5105F0BC
:102FA000E9F8099B5A46009051461EA803F021FCFF
:102FB0001E99404605F0DEF80146E06904F0D2FFB4
:102FC0001F99E061404605F0D5F80146206A04F0FB
:102FD000C9FF20992062404605F0CCF80146606A9E
:102FE00004F0C0FF21996062404605F0C3F8014635
:102FF000A06A04F0B7FFA06204F11C0004F09BF982
:1030000004F1340304F1300204F12C0104F11C003A
:103010000AAD03F0E7FF079A04F18001284603F0A8
:10302000F1FA95E8070004F1100383E80700E3686C
:10303000D3F8AC2803F5D650B2B1D4E91267DDE974
:1030400002120C4C0025A4197D41954208BF8C4208
:103050000AD2D3F87C393BB90821FFF71DFB06E003
:103060000E950F951095DDE50821FFF722FB23B0A3
:10307000BDE8F08F20A10700F0B500220023C0E9D1
:1030800032230368D3F83028D3F87C18D3F8587863
:10309000D3F85C68D3F8605802F100444761866158
:1030A000C561026244624163D3F83478D3F838686A
:1030B000D3F83C588763C6630564426484648165C1
:1030C000D3F86868D3F86C58D3F864780666456618
:1030D000C7658266C466C167D3F84078D3F8446890
:1030E000D3F84858C0F88070C0F88460C0F88850A1
:1030F000C0F88C20C0F89040C0F8A010D3F84C68FD
:10310000D3F85058D3F85438C0F8A460C0F8A85089
:10311000C0F8AC30C0F8B020C0F8B440C0F8C4105B
:10312000F0BDFFF7A9BF00224FF07E510260426060
:103130008260C160426103498261C261024A0161E9
:1031400002627047000080BFCDCC4C3D8360009B85
:103150000160C360019B42600361029B0362704790
:103160002DE9F04704460F461846114604F0F8FED4
:103170002168064604F0FEFFA56882460021284625
:1031800005F0B4F928B10999284604F0F3FF814607
:1031900001E04FF00009D4F804800021404605F01A
:1031A000A5F980B19DF820306BB13946304604F066
:1031B000E1FF616904F0D6FE01466061404604F01B
:1031C000D9FF074600E000274946504604F0C8FEF4
:1031D000394604F0C7FEE5680646294605F086F93B
:1031E00058B925693046294605F062F928B93146B3
:1031F000304605F053F93546F0B95146304604F0F3
:10320000AFFE494604F0AEFE27F0004720F0004133
:10321000384605F06BF978B10021404605F066F9B3
:1032200050B15146284604F09BFE494604F09AFEF0
:10323000414605F053F860612846BDE8F0872DE966
:10324000F3470D4604461F4928461646994605F0A1
:103250004DF940B3216A084604F084FE80460146D9
:10326000284604F07FFE07462946404604F078FED3
:10327000394605F033F8A16904F07CFFE169804626
:10328000304604F06DFE394682464FF0804005F02E
:1032900025F80146504604F06DFF0146404604F013
:1032A00061FEA06100E000209DF8283001900093AD
:1032B000E6614B46324629462046FFF751FF02B0F1
:1032C000BDE8F08717B7D1382DE9F74390461E4681
:1032D0000F460A9C05469DF82C9003F055F9404690
:1032E00004F09CFA2AA3D3E9002304F00DFB04F0B8
:1032F000E3FD637980464BB9CDF800900146A368A1
:10330000326807F13800FFF79AFF0CE0012B0CD16F
:103310003368CDF8009001930146A368F26907F184
:103320001400FFF71DFF286001E0A3682B60637B9A
:103330004BB9CDF8009023697268414607F18000CF
:10334000FFF77DFF0CE0012B0CD17368CDF80090E6
:1033500001932369326A414607F15C00FFF700FFE1
:10336000686001E023696B60637D53B9CDF800901C
:10337000A369B268414607F1A400FFF760FFA860A7
:1033800001E0A369AB60284603B0BDE8F08300BF4D
:103390008DEDB5A0F7C6B03EF0B5D0E9326756EA7C
:1033A000070387B00446056806D105F59355D5E9AE
:1033B0000C23C0E9322347E005F59353196B08331A
:1033C0008E1BDB6A07D5102105F5D65007B0BDE886
:1033D000F040FFF761B9C0F8CC3041F6C423C0F823
:1033E000C810E85C60B105F587531849586B05F0C3
:1033F0007DF828B142F20F708642CCBF0020012038
:1034000005F587531433009305F59353083332467B
:103410000190214603A8FFF757FF25680398D5F8C8
:10342000701804F09FFDA060D5F87418049804F09B
:1034300099FDE060D5F87808059904F093FD05F54D
:1034400087556B6B2061636007B0F0BDCDCCCC3D80
:1034500041F6C42330B50446006893B0C55C08301B
:10346000002D51D12B4A012100F093FC06A803F056
:103470008BF809A803F0B5F9002306930793089386
:103480000A930B930C930D930E930F9323684FF0B5
:103490007E5203F585530C33099201952A46009319
:1034A000214606AB03A8FFF70FFF25680399D5F85F
:1034B000700804F057FD1C21024605F5C470FEF7A4
:1034C000D6F825680498D5F8741804F04BFD1D2132
:1034D000024605F5C470FEF7CAF825680598D5F8C8
:1034E000781804F03FFD1E21024605F5C470FEF772
:1034F000BEF82068084A0121083000F04AFC206824
:10350000064A0121083001E0054A012100F041FC92
:1035100013B030BDF41F0108192001084020010834
:103520006A20010870B5044688B040F8141BFFF704
:10353000FAFD04F13800FFF7F6FD04F15C00FFF737
:10354000F2FD04F18000FFF7EEFD04F1A400FFF7A7
:10355000EAFD2068AD4D00F5C476002301A904A85A
:1035600001950293039409F061FC162204A93046E8
:10357000FEF79AF804A809F0CDFB2068002300F5B7
:10358000C47601A904A801950293039409F04EFCA6
:10359000172204A93046FEF787F804A809F0BAFB01
:1035A0002068002300F5C47601A904A801950293C0
:1035B000039409F03BFC182204A93046FEF774F886
:1035C00004A809F0A7FB2068002300F5C47601A930
:1035D00004A801950293039409F028FC0D2204A984
:1035E0003046FEF761F804A809F094FB2068002338
:1035F00000F5C47601A904A801950293039409F08B
:1036000015FC0E2204A93046FEF74EF804A809F076
:1036100081FB2068002300F5C47601A904A8019568
:103620000293039409F002FC0F2204A93046FEF72E
:103630003BF804A809F06EFB2068002300F5C4766F
:1036400001A904A801950293039409F0EFFB192244
:1036500004A93046FEF728F804A809F05BFB2068AF
:10366000002300F5C47601A904A8019502930394F0
:1036700009F0DCFB1A2204A93046FEF715F804A86D
:1036800009F048FB2068002300F5C47601A904A8CE
:1036900001950293039409F0C9FB1B2204A930464B
:1036A000FEF702F804A809F035FB2068002300F5B6
:1036B000C47601A904A801950293039409F0B6FB0E
:1036C00010220DEB02013046FDF7EEFF04A809F0D1
:1036D00021FB2068002300F5C47601A904A8019508
:1036E0000293039409F0A2FB112204A93046FDF7CE
:1036F000DBFF04A809F00EFB2068002300F5C47668
:1037000001A904A801950293039409F08FFB1222EA
:1037100004A93046FDF7C8FF04A809F0FBFA2068A9
:10372000002300F5C47601A904A80195029303942F
:1037300009F07CFB132204A93046FDF7B5FF04A86D
:1037400009F0E8FA2068002300F5C47601A904A86E
:1037500001950293039409F069FB142204A93046F1
:10376000FDF7A2FF04A809F0D5FA2068002300F5B0
:10377000C47601A904A801950293039409F056FBAD
:10378000152204A93046FDF78FFF04A809F0C2FAFC
:103790002068002300F5C47601A904A801950293CE
:1037A000039409F043FB0C2204A93046FDF77CFF8B
:1037B00004A809F0AFFA2068002300F5C47601A937
:1037C00004A801950293039409F030FB1F2204A979
:1037D0003046FDF769FF04A809F09CFA204608B0BE
:1037E00070BDFFE704A809F095FA0AF0CCF9F9E7F3
:1037F000F8E7F7E7F6E7F5E7F4E7F3E7F2E7F1E7ED
:10380000F0E7EFE7EEE7EDE7ECE7EBE72331000861
:103810000369D3F804380370704703788B4204BF00
:103820000023037670472DE9F047DDE908679046ED
:1038300099460369044618680368DB68984758EAA4
:10384000090310D14FF47A7EA0FB0E2365690EFBAD
:10385000013328682178CDE90867846C2846A4469E
:10386000BDE8F0476047BDE8F087034610B4406903
:103870001A690168D2F87C298C690032197818BF5E
:103880000122234610BC1847D3B501460B69406995
:1038900003F59353D3E90C67083302680978019361
:1038A0000C33009394683B463246A04702B0D0BD2B
:1038B000DFB501460B69406903F5CC531C6BD3E9B6
:1038C0000E6702680978029403F1140408338DE846
:1038D00018003B46D4693246A04704B0D0BD2DE95C
:1038E000F041456907782B6804461E6B0369186828
:1038F00003689B6898472369024603F59753394646
:103900002846B446BDE8F041143360470369F0B57A
:103910000446186885B0036800211B6E9847236928
:10392000ADF800001868012103681B6E98472369F1
:10393000ADF802001868022103681B6E98472369DE
:10394000ADF804001868032103681B6E98472369CB
:10395000ADF806001868042103681B6E98472369B8
:10396000ADF808001868052103681B6E98472369A5
:10397000ADF80A001868062103681B6E9847236992
:10398000ADF80C001868072103681B6E984765693D
:10399000ADF80E002B682778DE6B23691868036882
:1039A0009B6898476B46024639462846B04705B0A3
:1039B000F0BD026913B502F5CC5292F84C100346E3
:1039C000083241B14069146C1978036800945C694D
:1039D000D36B926BA04702B010BD026913B502F51C
:1039E000CC5292F85C100346083241B14069146D24
:1039F000197803680094DC68D36C926CA04702B01D
:103A000010BD036913B503F5CC5393F86410024657
:103A1000083361B140694FF07A541178026801941B
:103A20004FF082440094146C9B6D0022A04702B0BA
:103A300010BD026910B402F5CC5292F8751003461D
:103A4000083239B14069603201684C6A19782346FE
:103A500010BC184710BC704741F6C4232DE9F04153
:103A6000064600690F46C35C002B42D10A293CD8A8
:103A7000DFE801F0060B12171C21262B413135001F
:103A800000F5C470FDF74AFD03E000F5C470FDF7D2
:103A900071FD0024254631E000F5C470FCF799FD66
:103AA00023E000F5CC50FDF7C0FFF2E700F5CC5065
:103AB000FDF79EFFEDE700F5CC50FDF7D5FFE8E7F9
:103AC00000F5CC50FDF7E3FFE3E700F58C5008303C
:103AD000FFF7BEFC09E00124002520460EE07069D6
:103AE000154A03683178DB6C98470024254601208D
:103AF00004E00024F0E7012528460024D6F814E06D
:103B00003A46DEF800303178D3F81080034670462C
:103B1000C04705B96CB133691421186803681B6983
:103B2000984733692146BDE8F041186803685B682F
:103B30001847BDE8F08100BFA420010870B54B68AC
:103B400090B00993CB6804460B934B690D93CB69F6
:103B50000F930B7A8DF820300B7C8DF828300B7E7C
:103B60008DF8303091F820308DF838300B68012B0B
:103B700004D0022B0BD0A3B9032300E000238DF85F
:103B800021308DF829308DF83130022307E00122F1
:103B90008DF821208DF8292000228DF831208DF814
:103BA000393023690AAD186803689B68984726690D
:103BB0006C4607900FCD0FC495E8030084E803001E
:103BC00007AB06F583500ECB1C3000F015FF10B08C
:103BD00070BD38B51D46037804468B4215D1006987
:103BE000114600F5C470FDF7FAFC662801460CD8B2
:103BF00041F20C0320694218D35C33B92A46BDE870
:103C0000384000F5C470FDF70BBD38BD38B51D4612
:103C1000037804468B4216D10069114600F5C47042
:103C2000FDF7DDFC662801460DD841F20C03206942
:103C30004218D35C012B06D12A46BDE8384000F576
:103C4000C470FDF714BD38BD2DE9F04F437E8BB035
:103C50000446002B46D00069D0F87C3943B900F502
:103C6000875314335B79012B0CBF0227012700E037
:103C7000002741F6C422666910F802A0336894F860
:103C80000090D3F8448000F5D65300F583501C30E3
:103C900093F805B000F0A3FE0990206900F5835069
:103CA0001C3000F09FFE0890206900F5D651006896
:103CB0000431097905680791AD6AA847054620696E
:103CC000FCF719FC0799089A099B00B22DB20590E0
:103CD000029101920093049503975B465246494630
:103CE0003046C0470BB0BDE8F08F006809F07CBCDF
:103CF000FFF7AABF662973B50A46054628D841F2E0
:103D00000C0304696118CB5C93B1012B20D140698D
:103D10006726297804EB0213056804EB82040196F8
:103D2000D4F8004803F69C130094AC6BA0470FE056
:103D300040696726297804EB0213056804EB8204C6
:103D40000196D4F8004803F69C1300946C6BA047CE
:103D500002B070BD10B504460078884211D1002B26
:103D600007DA2069114600F5C470FDF738FC0146FA
:103D700000E099B2662904D82046BDE81040FFF75C
:103D8000B9BF10BD002303767047406903685B68C4
:103D900018470CB470B504460E468EB012AA52F8FD
:103DA000041B01A80092FCF7DDFA60693246036843
:103DB00021781D6A01ABA8470EB0BDE8704002B083
:103DC00070472DE9F3414469067823680F469D6AE0
:103DD00003699046186803689B689847CDF800808F
:103DE00002463B4631462046A84702B0BDE8F08176
:103DF0002DE9F3414469067823680F46DD6A0369BB
:103E00009046186803689B689847CDF80080024682
:103E10003B4631462046A84702B0BDE8F081017E0E
:103E200010B56629044604D8FFF764FF237E0133EA
:103E3000237610BDFFF7F3BF70B5154600230022AF
:103E4000C0E9022300238361AB68044601607BB1B3
:103E500000F110060222294630469847EB68E361DC
:103E6000AB68A36104E0304608F054FF09F08BFE14
:103E7000204670BD2DE9F0410668BEB1D0E902458B
:103E8000AB4208BFA24211D30027A4197D419D4235
:103E900008BF9442F9D38369C0E902450BB909F020
:103EA0002AFFC369BDE8F04110301847BDE8F08132
:103EB000F8B503690446186804F12005036804F5A1
:103EC000C074DB68984706460F46284632463B4694
:103ED0002035FFF7CFFFA542F7D1F8BD11B1024B56
:103EE000B3FBF1F10160704740420F00036992B2E9
:103EF00003EB82034A1C00EB4210D3F80018FFF7D3
:103F0000EDBF70B59B4BACB001610446426100F15E
:103F1000200528932A90002328A96846299309F0B0
:103F200061F900E0E4E06A4693492846FFF784FF20
:103F3000684608F0EFFE914B28A9289304A80023B7
:103F400004F1400629932A9409F04CF900E0D4E0EA
:103F500004AA89493046FFF76FFF04A808F0DAFE8B
:103F6000874B28A9289308A8002304F16006299309
:103F70002A9409F037F900E0C4E008AA81493046E4
:103F8000FFF75AFF08A808F0C5FE7F4B28A9289321
:103F90000CA8002304F1800629932A9409F022F941
:103FA00000E0B4E00CAA4FF47A713046FFF744FF0A
:103FB0000CA808F0AFFE754B28A9289310A8002381
:103FC00004F1A00629932A9409F00CF900E0A3E07B
:103FD00010AA6C493046FFF72FFF10A808F09AFE90
:103FE0006B4B28A9289314A8002304F1C006299339
:103FF0002A9409F0F7F800E093E014AA61493046EA
:10400000FFF71AFF14A808F085FE624B28A9289331
:1040100018A8002304F1E00629932A9409F0E2F895
:1040200000E083E018AA5C493046FFF705FF18A8B6
:1040300008F070FE594B28A928931CA8002304F50A
:10404000807629932A9409F0CDF800E073E01CAA49
:1040500041F66A013046FFF7EFFE1CA808F05AFE51
:104060004F4B28A9289320A8002304F59076299384
:104070002A9409F0B7F800E062E020AA0021304657
:10408000FFF7DAFE20A808F045FE464B28A9289342
:1040900024A8002304F5A07629932A9409F0A2F815
:1040A00000E052E024AA00213046FFF7C5FE24A814
:1040B00008F030FE3C4B24A9249328A8002304F5E3
:1040C000B0762593269409F08DF800E042E028AA06
:1040D00041F288313046FFF7AFFE28A808F01AFEFB
:1040E0002046002363762CB070BD684608F012FEAF
:1040F0000A2330E004A808F00DFE09232BE008A8ED
:1041000008F008FE082326E00CA808F003FE0723A9
:1041100021E010A808F0FEFD06231CE014A808F01A
:10412000F9FD052317E018A808F0F4FD042312E0B8
:104130001CA808F0EFFD03230DE020A808F0EAFD1D
:10414000022308E024A808F0E5FD012303E028A8E5
:1041500008F0E0FD0023C3F10A0305EB4314AC4271
:1041600005D0203C04F1100008F0D4FDF7E709F079
:104170000AFD00BF6B38000840420F00493C0008B0
:1041800089380008400D0300B1380008B339000831
:10419000DB390008033A0008A0860100333A000822
:1041A000DF3800080D390008353E000870B50446B8
:1041B00088B0456900260C20029609F0AFFC8E4BB2
:1041C000846080E848008D4B009003938C4B022262
:1041D000694604A80293069608F022FF00E02EE04C
:1041E000039B291D0793029B04A8069309F075F809
:1041F000EA68069B0692EB602A69079B04A807926F
:104200002B6108F087FD684608F084FD00260C202D
:104210006569029609F082FC7A4B846080E8480068
:10422000794B00900393794B0222694604A80293CC
:10423000069608F00EFF08E004A808F06BFD68463B
:1042400008F068FD09F09FFCF9E7039B05F11401F4
:104250000793029B04A8069309F03FF8EA69069BBE
:104260000692EB612A6A079B04A807922B6208F06A
:1042700051FD684608F04EFD00260C206569029647
:1042800009F04CFC624B846080E84800614B009070
:104290000393614B0222694604A80293069608F034
:1042A000F1FE01E0C8E7CAE7039B05F1240107938B
:1042B000029B04A8069309F010F8EA6A069B06928E
:1042C000EB622A6B079B04A807922B6308F022FD80
:1042D000684608F01FFD00260C206569029609F06B
:1042E0001DFC4E4B846080E848004D4B00900393CA
:1042F0004C4B0222694604A80293069608F0DBFEA6
:1043000001E099E79BE7039B05F134010793029BCA
:1043100004A8069308F0E1FFEA6B069B0692EB63A4
:10432000079B2A6C04A807922B6408F0F3FC6846EC
:1043300008F0F0FC00230C20666906931D4609F086
:10434000EDFB394B846080E82800384B04900793DC
:10435000374B04A906F14400069308F0CFFF01E0B3
:104360006AE7A7E104A808F0D5FC00260C206569DF
:10437000029609F0D3FB2F4B846080E848002E4B57
:10438000009003932D4B0222694604A802930696DF
:1043900008F0C3FE00E052E7039B05F154010793C8
:1043A000029B04A8069308F098FFEA6D069B06920C
:1043B000EB652A6E079B04A807922B6608F0AAFCFF
:1043C000684608F0A7FC00260C206569029609F0F3
:1043D000A5FB1B4B846080E848001A4B00900393B8
:1043E000194B0222694604A80293069608F0AEFE15
:1043F0002CE021E723E700BF1B38000889CE000826
:1044000021D00008553D0008ABCE000853D000086D
:10441000D33B0008D5CE000885D000080D3C00082D
:10442000FDCE0008B7D000083D3B000825CF0008AE
:10443000E9D00008593A000845CF00081BD1000810
:104440002738000867CF00084DD10008039B05F10D
:1044500064010793029B04A8069308F03EFFEA6EEE
:10446000069B0692EB662A6F079B04A807922B67B0
:1044700008F050FC684608F04DFC6069226903684A
:10448000D2F800181B68984720690022D0F8043839
:1044900000F5C47523700023C4E902236723237643
:1044A0000C20002306931E4609F038FB824B8460E3
:1044B00080E84800814B04900793814B012204A9B6
:1044C00028460693FDF7F0F801E0B5E6F2E004A80F
:1044D00008F020FC20697B4D002300F5C476694676
:1044E00004A8009501938DF80830039408F09AFE13
:1044F000022204A93046FDF7D7F804A808F00AFC08
:104500002069002300F5C47601936946022304A8BC
:1045100000958DF80830039408F084FE042204A965
:104520003046FDF7C1F804A808F0F4FB2069002329
:1045300000F5C47601936946032304A800958DF81D
:104540000830039408F06EFE052204A93046FDF7FA
:10455000ABF804A808F0DEFB2069002300F5C47660
:1045600001936946022304A800958DF8083003944E
:1045700008F058FE042204A93046FDF795F804A877
:1045800008F0C8FB2069002300F5C4760193694652
:10459000042304A800958DF80830039408F042FE27
:1045A000082204A93046FDF77FF804A808F0B2FB02
:1045B0002069002300F5C47601936946052304A809
:1045C00000958DF80830039408F02CFE072204A90A
:1045D0003046FDF769F804A808F09CFB2069002329
:1045E00000F5C47601936946062304A800958DF86A
:1045F0000830039408F016FE092204A93046FDF79E
:1046000053F804A808F086FB2069002300F5C4765F
:1046100001936946072304A800958DF80830039498
:1046200008F000FE062204A93046FDF73DF804A874
:1046300008F070FB2069002300F5C47601936946F9
:10464000082304A800958DF80830039408F0EAFDCB
:104650000A2204A93046FDF727F804A808F05AFBFF
:104660002069002300F5C47601936946092304A854
:1046700000958DF80830039408F0D4FD0B2204A9AE
:104680003046FDF711F804A808F044FB01236376D7
:104690000D4A00212046FFF77CFB08B070BD09E001
:1046A00008E007E006E005E004E003E002E001E0E6
:1046B00000E0FFE704A8C3E51138000893CF000825
:1046C0007FD10008ED3E0008B82001080346F0B590
:1046D000334D00F134022F4643F8582B436000F16C
:1046E0007C03836000F13C03C36000F1600303615D
:1046F00000F18403436100F14403836100F1680326
:10470000C36100F18C03036200F14C03436200F1CA
:1047100070030446836200F1300600F19403C36223
:104720008E460FCF0FC60FCFD7F800C02F460FC64B
:10473000C6F800C004F154060FCF0FC60FCF2F46A6
:104740000FC60FCFC6F800C004F178060FC60FCF12
:104750000FC605F12407C6F800C004F19C060FCF70
:104760000FC60FCF0FC63B6805F14807336004F151
:10477000C0060FCF0FC60FCF0FC63B686C35336036
:1047800004F1E4060FCD0FC695E8030004F19C0385
:1047900086E80300C4F8FCE0C4F804312046F0BD0C
:1047A000980A010830B5D0F8FC30D0F80451D3F89D
:1047B0008828C0F8BC20D3F87C3913B100F1C004BC
:1047C00001E000F19C040FCC0FC50FCC0FC523688E
:1047D0002B6030BDFFF7E6BF38B50446D0F8FC00CB
:1047E000002100F5C9501C3000F0E5F9A063D4F8B1
:1047F000FC00012100F5C9501C3000F0DCF92064F8
:10480000D4F8FC00022100F5C9501C3000F0D3F9A7
:10481000A064D4F8FC00032100F5C9501C3000F05E
:10482000CAF92065D4F8FC00D0F87C393BB10323E9
:1048300084F8353084F83D3084F845303AE000F5AE
:10484000C95003211C3000F0BEF9D4F8FC3030B15F
:1048500003F5C95003211C3000F0B1F904E0D3F88E
:104860006009003018BF0120012884F8350084F861
:104870003D00D4F8FC5008D0D5F86C19A06B03F0BB
:1048800079FCA063D5F8701907E0D5F86419A06B1E
:1048900003F070FCA063D5F86819206C03F06AFC83
:1048A0000023206484F84530D5F87419A06C03F017
:1048B00061FCA064022384F84D3038BDD0F8FC3090
:1048C00070B5054618680C46036805EBC4049B6880
:1048D00098470646D5F8FC00D4F8E820D0F85839B7
:1048E00013449E4211D300F5C95094F8E4101C30D3
:1048F00000F061F9D5F8FC3020F00040D3F85419ED
:1049000003F0F4FD10B1C4F8E860012070BD38B5C3
:104910000446D0F8FC000D4600F5C95001211C30BA
:1049200000F051F960B929462046FFF7C7FF88B962
:104930000C2303FB05435B681B7883F001030AE04B
:10494000D4F8FC00012100F5C9501C3000F037F903
:104950000028E8D001230C2169436218956861584A
:104960005268002B18BF0A4692E8030085E803004E
:10497000184638BD38B50546D0F8FC00022100F5D0
:10498000C9501C3000F01FF950B1D5F8FC000221CD
:1049900000F5C9501C3000F012F908B1012312E0F3
:1049A000AA6A1378002BF9D0D5F8FC30D3F85C391B
:1049B0004BB16B6A516858684FF0010403F078FD01
:1049C00000B90446E3B205F1240116C9002B18BF53
:1049D0000A4692E8030084E80300184638BD90F8C0
:1049E00001017047034600F130025968087810B998
:1049F0000C339342F9D1704784B030B504AC84E8ED
:104A00000E0000F15405012380F800310FCC0FC5D2
:104A10000FCC0FC523682B60BDE8304004B0704751
:104A200084B030B504AC84E80E0000F130050123F9
:104A300080F800310FCC0FC50FCC0FC523682B6059
:104A4000BDE8304004B0704730B5012300F178056F
:104A500000F1300480F800310FCC0FC50FCC0FC52A
:104A600023682B6030BDF8B5044690F80171D0F88A
:104A7000FC0000F5D6535D7955B1D4F8046104F11A
:104A800078050FCE0FC50FCE0FC533682B6047E0FA
:104A900000F5C9501C3000F045FA002840D02046EF
:104AA000FFF79AFED4F8FC30186803689B689847B3
:104AB000636D00216433984281BF84F8705084F89C
:104AC000585084F8605084F868502046FFF71FFF64
:104AD000012184F801012046FFF719FF94F8013104
:104AE0000221184384F801012046FFF710FF94F8D3
:104AF0000131184384F801012046FFF73BFF94F889
:104B000001311843C0B284F80101D4F8FC3018B167
:104B1000186803685B6F02E0186803689B6F98472A
:104B200094F80131BB4204D0D4F8FC000830FFF700
:104B3000DFF80120F8BD70B50446D0F8FC0088B05D
:104B4000184D00F5C476002301A904A8019502932D
:104B5000039408F043FC5F2204A93046FCF7A4FD4F
:104B600004A808F0D7F8D4F8FC00002300F5C476B8
:104B700001A904A801950293039408F02FFC2222B6
:104B800004A93046FCF790FD04A808F0C3F82046BD
:104B9000FFF708FE08B070BDFFE704A808F0BAF8F8
:104BA00008F0F1FFD5470008002201608260C26072
:104BB0000261426170470C3150F821007047014496
:104BC00091F82C00704701EB4101084490F8220055
:104BD00070470368D3F82029027600224276D3F882
:104BE0002419C2768176D3F8281942770177D3F851
:104BF0002C3983770123C377704770B50446054687
:104C000088B00026F3B2022B17D0032B1FD0012B44
:104C100009D0334903A80BF0FDFE2368D3F83C39D3
:104C200084F820301CE02F4903A80BF0F3FE236822
:104C3000D3F8303984F8233012E02B4903A80BF065
:104C4000E9FE2368D3F8343984F8263008E0274990
:104C500003A80BF0DFFE2368D3F8383984F8293035
:104C600095F82030032B07D92268D2F840198B42DF
:104C7000ACBF0021012100E000211A1F85F822109D
:104C8000032A13D8DFE802F002060A0E2268D2F8DF
:104C900044290CE02268D2F8482908E02268D2F8BA
:104CA0004C2904E02268D2F8502900E0012285F85E
:104CB0002120206839B100930D4A03AB0021083050
:104CC000FFF767F804E003AB0A4A0830FFF761F822
:104CD0000136042E05F1030594D108B070BD00BF64
:104CE000D71B0108C0200108D2200108E4200108D8
:104CF000F22001081421010810B5FFF76AFFBDE892
:104D00001040FFF77ABFFFF7F7BF03682DE9F041C6
:104D1000064618680368DB6D984720B904460546C7
:104D200040F634071AE03068032100F5D650FDF74D
:104D3000D1FC012522E000685FFA84F8036841464F
:104D40001B6E9847B0F5617F16D3336841461868EB
:104D500003681B6E9847B8420ED80134306863B2BE
:104D6000D0F840299342E6DB002DDCD1042100F588
:104D7000D650FDF7AFFC01E00125EEE72846BDE87F
:104D8000F08103682DE9F0410446186803689B68C8
:104D9000984794F82230266925682061002B40D17D
:104DA00041F6C42305F5C957D5F89889EB5C1C3743
:104DB000861BF96B4046B3B903F098FB002843D03B
:104DC00041464FF07E5003F0CBF80146B86B03F03C
:104DD0008DFB002838D0E0683044E060E368B3F52C
:104DE0007A7F37D927E003F081FB80B341464FF04B
:104DF0007E5003F0B5F8B96B00F1004003F076FB8C
:104E000028B3E0680644E660E368B3F57A7F21D909
:104E1000022105F5D650FDF75DFC0023E360BDE8F7
:104E2000F08105F5C9531C3393F82C302BB141F6B2
:104E3000C423EB5C73B9012100E0022105F5D650D3
:104E4000BDE8F041FDF746BC0023E360C6E7002360
:104E5000E360D9E7BDE8F0812DE9F8430368044633
:104E6000186803689B6898476369C31A132B02D8B4
:104E70000020BDE8F88360612046FFF746FF002868
:104E8000F6D12546274604F1300604F14008236890
:104E9000397E186803681B6E98477B7E13B1A0F5B6
:104EA0007A7002E0A0F2DC50400003F00FF91C49D8
:104EB00003F014FA043646F8040C464507F10207DD
:104EC000E5D140F2077840F2AF4904F12C0604F135
:104ED0000C0795F82230B3B195F9213095F82010E0
:104EE000002B2368186803681B6E05DA984748454D
:104EF0008CBF0020012004E09847404594BF00206B
:104F00000120307000E033700335BD4206F1010628
:104F1000DFD12046FFF735FF01202071BDE8F8837F
:104F200000007A4403790BB10022027118467047E1
:104F300070B50446006888B07D4D00F5C476002346
:104F400001A904A801950293039408F093FA4C2256
:104F500004A93046FCF7A8FB04A807F0DBFE206894
:104F6000002300F5C47601A904A8019502930394D7
:104F700008F080FA4D2204A93046FCF795FB04A8FE
:104F800007F0C8FE2068002300F5C47601A904A834
:104F900001950293039408F06DFA4E2204A930465D
:104FA000FCF782FB04A807F0B5FE2068002300F59B
:104FB000C47601A904A801950293039408F05AFA53
:104FC0004F2204A93046FCF76FFB04A807F0A2FEAD
:104FD0002068002300F5C47601A904A80195029376
:104FE000039408F047FA482204A93046FCF75CFB1A
:104FF00004A807F08FFE2068002300F5C47601A9FD
:1050000004A801950293039408F034FA492204A9F4
:105010003046FCF749FB04A807F07CFE206800231B
:1050200000F5C47601A904A801950293039408F041
:1050300021FA4A2204A93046FCF736FB04A807F0FF
:1050400069FE2068002300F5C47601A904A8019533
:105050000293039408F00EFA4B2204A93046FCF7A1
:1050600023FB04A807F056FE2068002300F5C47651
:1050700001A904A801950293039408F0FBF95122B9
:1050800004A93046FCF710FB04A807F043FE206893
:10509000002300F5C47601A904A8019502930394A6
:1050A00008F0E8F9522204A93046FCF7FDFA04A8FA
:1050B00007F030FE2068002300F5C47601A904A89B
:1050C00001950293039408F0D5F9532204A93046C0
:1050D000FCF7EAFA04A807F01DFE2068002300F59B
:1050E000C47601A904A801950293039408F0C2F9BB
:1050F000542204A93046FCF7D7FA04A807F00AFEA8
:105100002046FFF7F9FD0023237108B070BDFFE7CB
:1051100004A807F0FFFD08F036FDF9E7F8E7F7E728
:10512000F6E7F5E7F4E7F3E7F2E7F1E7F0E700BFCA
:10513000074D00082DE9F04F06463F4D4FF0880817
:1051400046F8441B044687B04246294630460BF0D9
:105150005FFB424604F1CC0BA91804F5AA7A584625
:105160000BF056FB424605F5887150460BF050FB9C
:1051700004F5EE73424605F5CC71184601930BF029
:1051800047FB04F51973424605F50871184602936A
:105190000BF03EFB04F53B73424605F52A711846B9
:1051A00003930BF035FB04F55D73424605F54C7136
:1051B000184604F57F7904930BF02AFB424605F567
:1051C0006E7148460BF024FB04F28443424605F519
:1051D0008861184604F20C5705930BF019FB424600
:1051E00005F5996138460BF013FB04F294534246DF
:1051F00005F5AA6118460BF00BFBC4F848062046DB
:10520000019AC4F82066C4F82C26029AC4F824B681
:10521000C4F83026039AC4F828A6C4F83426049AA1
:10522000C4F83C96C4F83826059AC4F84476C4F805
:10523000402607B0BDE8F08F1C0B010810B50446EE
:105240000068012100F5D650FDF733FA206890F888
:1052500078390A2B0BD90D4A02210830FEF799FD47
:105260002068012100F5D650FDF716FA002303F55A
:10527000C47354F8233004F12002C4F81C36002310
:1052800044F8043F94422362FAD110BD2921010859
:1052900010B402681068D2F81C19036801F1FF3CD1
:1052A0009C6DDCF10001B2F8903841EB0C01B2F9D1
:1052B0008028A44610BC60475E2901D1FFF7BEBF1D
:1052C000FFF7E6BF41F6C4232DE9F0410568074624
:1052D000EB5C884616469BB14FF07E51104603F0BA
:1052E00005F950B9D5F884483046214603F0E0F876
:1052F00038B3D5F8943823B303E04FF07E5400E080
:10530000002407EB88077C60D5F89078D5F88C08E6
:105310002E68C01B02F0DAFE214602F02BFF044685
:10532000384602F0D3FE0146204602F01BFE03F091
:10533000E7F8336882B241463046BDE8F0415B6E23
:1053400018470021304603F0B3F80028D8D134467E
:10535000D7E770B505460E4610464FF07E5114460D
:1053600003F0C4F830B90F49204603F0A1F818B192
:105370000C4C01E04FF07E5405EB86035C602B681B
:10538000094920461D6802F0F5FE084902F0EAFDD1
:1053900003F0DCF82B6882B231462846BDE8704045
:1053A0005B6E1847000080BF0000FA430080BB44DA
:1053B00041F28C132DE9F04F046885B0E35806469E
:1053C000009341F2901354F8039041F2941354F86F
:1053D00003B041F2981354F803A0D4F87C394BB3CE
:1053E000D4F88439002B14BF4FF0FF30012002F0B5
:1053F0006DFE0146484602F0BDFED4F88039814674
:10540000002B14BF4FF0FF30012002F05FFE014679
:10541000584602F0AFFED4F888398346002B14BFFB
:105420004FF0FF30012002F051FE0146504602F0DD
:10543000A1FE824606F12405A846D6F81C264FF0A8
:105440007E57531E02F108042832019213F8012FEF
:10545000002A2CD021680098039302F08BFE216A69
:105460000290484602F086FE029A0146104602F07B
:1054700079FD216C0290584602F07CFE029A0146AA
:10548000104602F06FFD216E0290504602F072FE4F
:10549000029A0146104602F065FD3946C8F8000040
:1054A000029003F023F8039B08B1029A1746019A71
:1054B0000434944208F10408C8D14FF07E513846B4
:1054C00003F014F830B139464FF07E5002F006FF79
:1054D000074601E04FF07E570024D6F81C361B5DCE
:1054E000012B05D12A68E1B23046FFF732FF0BE00D
:1054F000022B09D12968384602F03CFEE1B202468F
:1055000028603046FFF7DEFE0134082C05F1040563
:10551000E3D105B0BDE8F08F70B50446006888B0EF
:105520002D4D00F5C476002301A904A8019502932E
:10553000039407F0EBFF202204A93046FCF7B4F8EF
:1055400004A807F0E7FB2068002300F5C47601A952
:1055500004A801950293039407F0D8FF242204A91C
:105560003046FCF7A1F804A807F0D4FB206800231C
:1055700000F5C47601A904A801950293039407F0ED
:10558000C5FF472204A93046FCF78EF804A807F0AF
:10559000C1FB2068002300F5C47601A904A8019589
:1055A0000293039407F0B2FF5E2204A93046FCF791
:1055B0007BF804A807F0AEFB2046FFF73FFE20462D
:1055C000FFF766FE08B070BDFFE704A807F0A2FB76
:1055D00008F0D9FAF9E7F8E7B95200080A8850400C
:1055E00080EA0010C0B2C30083EA002383EA1223DA
:1055F00083EA10100880704710B50446406F0368B6
:105600005B699847012384F8983110BD09B90BF004
:105610000AB90BF0FDB8F0B50D460746CE78C3B019
:10562000B41D2246023168460BF0F2F82B880DEBD0
:1056300004020DF80430786F1B125370036806F1F2
:1056400008029B696946984743B0F0BD2DE9F341D4
:105650001E468271FE231D4A8370C6704171937984
:1056600004460371013393714FF6FF730DF108087F
:10567000C71C28F8023D00F10805BD4205D041468F
:1056800017F8010BFFF7AAFFF7E72F46BDF8063022
:1056900094F803802380A844B845214604D017F825
:1056A000010BFFF79BFFF7E79DF82000FFF796FF40
:1056B000E378228806F10800EA54E3781D44238841
:1056C0001B126B7002B0BDE8F08100BFCC0000205F
:1056D00010B5084C00224167FA21C260C261C26263
:1056E000C263C264C265C2660460816780F89821A3
:1056F00010BD00BFFC10010890F8983103B18AE793
:1057000070472DE9F04FD1B004460D4610461946BA
:105710005B9A5A9B1768D3F800B0D3F804A0D3F86B
:105720000890D3F80C80536894F8786002939368DB
:105730004FF47A720393002302F078FF029B0997DB
:105740000A93039B0490CDF814B0CDF818A0CDF8BF
:105750001C90CDF820800B930DF1380E04AF0FCFC5
:10576000AEE80F0097E80F008EE80F001F238DF8BA
:105770003730F62300933246202329460CA8FFF742
:1057800065FF0CA92046FFF7B7FF51B0BDE8F08FC9
:1057900070B50D460446CAB004934E9B0392059320
:1057A00003A908AB90F8786007C983E80700B7231E
:1057B0008DF81F30CE23009332460C23294606A8CD
:1057C000FFF744FF06A92046FFF796FF4AB070BDD9
:1057D00010B504460A2A98BF0F48C8B09ABF1218DD
:1057E00092F858000B208DF80C008DF80D30BDF8A4
:1057F0000C3094F87820ADF81830BD238DF81730B0
:105800007123009304A80223FFF720FF04A9204678
:10581000FFF772FF48B010BDF410010870B50D46D7
:105820000446CAB004934E9B0392059303A908ABA8
:1058300090F8786007C983E80700B8238DF81F3017
:10584000A923009332460C23294606A8FFF7FEFE43
:1058500006A92046FFF750FF4AB070BDF0B50F46CD
:105860000646002ACBB014BF0122022200248DF884
:105870001020032203AB03948DF811408DF81240E1
:105880008DF813408DF8142008AD90F878E093E877
:10589000070003C532232A70394600937246092354
:1058A00006A88DF81F40FFF7D1FE06A93046FFF786
:1058B00023FF4BB0F0BD2DE9F04306460F46D1B0B3
:1058C00050AC5898599964E94E23D0F80090D0F81C
:1058D00004800D68D0F808C05A9B48688968C4F8ED
:1058E0000890C4F80C8065610EADC4F810C0A061CA
:1058F000E16123620FCC0FC50FCC96F878E00FC59D
:10590000236872462B60B5238DF83730432300930C
:10591000394624230CA8FFF799FE0CA93046FFF75F
:10592000EBFE51B0BDE8F0832DE9F0410F4606468D
:10593000032A98BF1749D4B09ABF521892F863202F
:10594000082290F878808DF80C200DF10D0032229D
:10595000194612AD03ACFFF759FE0FCC0FC50FCCA3
:105960000FC50FCC0FC52368424625F8023B1B0C20
:105970002B70FD238DF84730532300933946332392
:1059800010A8FFF763FE10A93046FFF7B5FE54B02C
:10599000BDE8F081F4100108F0B50E46054690F818
:1059A0007870916850681268CBB003AB0392049092
:1059B000059193E80700B6238DF81F3008ACDA2371
:1059C00084E8070000933A460C23314606A8FFF707
:1059D0003DFE06A92846FFF78FFE4BB0F0BD2DE92E
:1059E000F0410F460646CCB00392529A90F8788068
:1059F000049205A80A2219460AAD03ACFFF706FE79
:105A00000FCC0FC5236842462B80FC238DF827302E
:105A10002C2300933946122308A8FFF717FE08A984
:105A20003046FFF769FE4CB0BDE8F0812DE9F0414A
:105A30000F460646CCB00392529A90F878800492B2
:105A400005A80A2219460AAD03ACFFF7DFFD0FCC0B
:105A50000FC5236842462B80FB238DF82730AA23ED
:105A600000933946122308A8FFF7F0FD08A9304635
:105A7000FFF742FE4CB0BDE8F0812DE9F0410F4642
:105A80000646D0B00292002290F87880039204A8D3
:105A9000202219460EAD02ACFFF7B8FD0FCC0FC5A2
:105AA0000FCC0FC594E80300BE238DF83730E623F2
:105AB00085E8030042460093394628230CA8FFF7E7
:105AC000C5FD0CA93046FFF717FE50B0BDE8F081C8
:105AD000F0B50F460646CFB05499ADF812200391A9
